{
  "contractName": "BankLoanManagement",
  "abi": [
    {
      "inputs": [],
      "stateMutability": "nonpayable",
      "type": "constructor"
    },
    {
      "anonymous": false,
      "inputs": [
        {
          "indexed": true,
          "internalType": "uint256",
          "name": "loanId",
          "type": "uint256"
        }
      ],
      "name": "ApplicationCancelled",
      "type": "event"
    },
    {
      "anonymous": false,
      "inputs": [
        {
          "indexed": true,
          "internalType": "uint256",
          "name": "loanId",
          "type": "uint256"
        },
        {
          "indexed": false,
          "internalType": "uint256",
          "name": "amount",
          "type": "uint256"
        }
      ],
      "name": "CollateralDeposited",
      "type": "event"
    },
    {
      "anonymous": false,
      "inputs": [
        {
          "indexed": true,
          "internalType": "uint256",
          "name": "loanId",
          "type": "uint256"
        },
        {
          "indexed": false,
          "internalType": "uint256",
          "name": "amount",
          "type": "uint256"
        }
      ],
      "name": "CollateralWithdrawn",
      "type": "event"
    },
    {
      "anonymous": false,
      "inputs": [
        {
          "indexed": true,
          "internalType": "address",
          "name": "sender",
          "type": "address"
        },
        {
          "indexed": false,
          "internalType": "uint256",
          "name": "amount",
          "type": "uint256"
        }
      ],
      "name": "EtherReceived",
      "type": "event"
    },
    {
      "anonymous": false,
      "inputs": [
        {
          "indexed": true,
          "internalType": "uint256",
          "name": "loanId",
          "type": "uint256"
        },
        {
          "indexed": true,
          "internalType": "address",
          "name": "borrower",
          "type": "address"
        },
        {
          "indexed": false,
          "internalType": "uint256",
          "name": "amount",
          "type": "uint256"
        },
        {
          "indexed": false,
          "internalType": "uint256",
          "name": "duration",
          "type": "uint256"
        }
      ],
      "name": "LoanApplicationSubmitted",
      "type": "event"
    },
    {
      "anonymous": false,
      "inputs": [
        {
          "indexed": true,
          "internalType": "uint256",
          "name": "loanId",
          "type": "uint256"
        }
      ],
      "name": "LoanApproved",
      "type": "event"
    },
    {
      "anonymous": false,
      "inputs": [
        {
          "indexed": true,
          "internalType": "uint256",
          "name": "loanId",
          "type": "uint256"
        },
        {
          "indexed": true,
          "internalType": "address",
          "name": "borrower",
          "type": "address"
        },
        {
          "indexed": false,
          "internalType": "uint256",
          "name": "amount",
          "type": "uint256"
        }
      ],
      "name": "LoanCreated",
      "type": "event"
    },
    {
      "anonymous": false,
      "inputs": [
        {
          "indexed": true,
          "internalType": "uint256",
          "name": "loanId",
          "type": "uint256"
        },
        {
          "indexed": false,
          "internalType": "uint256",
          "name": "amount",
          "type": "uint256"
        }
      ],
      "name": "LoanDisbursed",
      "type": "event"
    },
    {
      "anonymous": false,
      "inputs": [
        {
          "indexed": true,
          "internalType": "uint256",
          "name": "loanId",
          "type": "uint256"
        }
      ],
      "name": "LoanRejected",
      "type": "event"
    },
    {
      "anonymous": false,
      "inputs": [
        {
          "indexed": true,
          "internalType": "address",
          "name": "previousOwner",
          "type": "address"
        },
        {
          "indexed": true,
          "internalType": "address",
          "name": "newOwner",
          "type": "address"
        }
      ],
      "name": "OwnershipTransferred",
      "type": "event"
    },
    {
      "anonymous": false,
      "inputs": [
        {
          "indexed": true,
          "internalType": "uint256",
          "name": "loanId",
          "type": "uint256"
        },
        {
          "indexed": false,
          "internalType": "uint256",
          "name": "amount",
          "type": "uint256"
        }
      ],
      "name": "RepaymentMade",
      "type": "event"
    },
    {
      "inputs": [],
      "name": "COLLATERAL_RATIO",
      "outputs": [
        {
          "internalType": "uint256",
          "name": "",
          "type": "uint256"
        }
      ],
      "stateMutability": "view",
      "type": "function",
      "constant": true
    },
    {
      "inputs": [],
      "name": "loanToken",
      "outputs": [
        {
          "internalType": "contract IERC20",
          "name": "",
          "type": "address"
        }
      ],
      "stateMutability": "view",
      "type": "function",
      "constant": true
    },
    {
      "inputs": [
        {
          "internalType": "uint256",
          "name": "",
          "type": "uint256"
        }
      ],
      "name": "loans",
      "outputs": [
        {
          "internalType": "address",
          "name": "borrower",
          "type": "address"
        },
        {
          "internalType": "uint256",
          "name": "amount",
          "type": "uint256"
        },
        {
          "internalType": "uint256",
          "name": "duration",
          "type": "uint256"
        },
        {
          "internalType": "uint256",
          "name": "interestRate",
          "type": "uint256"
        },
        {
          "internalType": "uint256",
          "name": "collateralAmount",
          "type": "uint256"
        },
        {
          "internalType": "uint256",
          "name": "repaidAmount",
          "type": "uint256"
        },
        {
          "internalType": "uint256",
          "name": "nextRepaymentDate",
          "type": "uint256"
        },
        {
          "internalType": "enum LoanBase.LoanStatus",
          "name": "status",
          "type": "uint8"
        }
      ],
      "stateMutability": "view",
      "type": "function",
      "constant": true
    },
    {
      "inputs": [],
      "name": "nextLoanId",
      "outputs": [
        {
          "internalType": "uint256",
          "name": "",
          "type": "uint256"
        }
      ],
      "stateMutability": "view",
      "type": "function",
      "constant": true
    },
    {
      "inputs": [],
      "name": "owner",
      "outputs": [
        {
          "internalType": "address",
          "name": "",
          "type": "address"
        }
      ],
      "stateMutability": "view",
      "type": "function",
      "constant": true
    },
    {
      "inputs": [
        {
          "internalType": "address",
          "name": "newOwner",
          "type": "address"
        }
      ],
      "name": "transferOwnership",
      "outputs": [],
      "stateMutability": "nonpayable",
      "type": "function"
    },
    {
      "inputs": [
        {
          "internalType": "uint256",
          "name": "amount",
          "type": "uint256"
        },
        {
          "internalType": "uint256",
          "name": "duration",
          "type": "uint256"
        }
      ],
      "name": "applyForLoan",
      "outputs": [
        {
          "internalType": "uint256",
          "name": "",
          "type": "uint256"
        }
      ],
      "stateMutability": "nonpayable",
      "type": "function"
    },
    {
      "inputs": [
        {
          "internalType": "uint256",
          "name": "loanId",
          "type": "uint256"
        }
      ],
      "name": "cancelApplication",
      "outputs": [],
      "stateMutability": "nonpayable",
      "type": "function"
    },
    {
      "inputs": [
        {
          "internalType": "uint256",
          "name": "loanId",
          "type": "uint256"
        }
      ],
      "name": "approveLoan",
      "outputs": [],
      "stateMutability": "nonpayable",
      "type": "function"
    },
    {
      "inputs": [
        {
          "internalType": "uint256",
          "name": "loanId",
          "type": "uint256"
        }
      ],
      "name": "rejectLoan",
      "outputs": [],
      "stateMutability": "nonpayable",
      "type": "function"
    },
    {
      "inputs": [
        {
          "internalType": "uint256",
          "name": "loanId",
          "type": "uint256"
        }
      ],
      "name": "makeRepayment",
      "outputs": [],
      "stateMutability": "payable",
      "type": "function",
      "payable": true
    },
    {
      "inputs": [
        {
          "internalType": "uint256",
          "name": "loanId",
          "type": "uint256"
        }
      ],
      "name": "depositCollateral",
      "outputs": [],
      "stateMutability": "payable",
      "type": "function",
      "payable": true
    },
    {
      "inputs": [
        {
          "internalType": "uint256",
          "name": "loanId",
          "type": "uint256"
        }
      ],
      "name": "disburseLoan",
      "outputs": [],
      "stateMutability": "nonpayable",
      "type": "function"
    },
    {
      "inputs": [
        {
          "internalType": "uint256",
          "name": "loanId",
          "type": "uint256"
        }
      ],
      "name": "withdrawCollateral",
      "outputs": [],
      "stateMutability": "nonpayable",
      "type": "function"
    },
    {
      "inputs": [
        {
          "internalType": "uint256",
          "name": "loanId",
          "type": "uint256"
        }
      ],
      "name": "_calculateTotalDue",
      "outputs": [
        {
          "internalType": "uint256",
          "name": "",
          "type": "uint256"
        }
      ],
      "stateMutability": "view",
      "type": "function",
      "constant": true
    }
  ],
  "bytecode": "0x6080604052348015600e575f80fd5b505f80546001600160a01b0319163390811782556040519091907f8be0079c531659141344cd1fd0a4f28419497f9722a3daafe3b4186f6b6457e0908290a36001805561138f8061005e5f395ff3fe6080604052600436106100e4575f3560e01c8063b73e4da011610087578063d9e69a0511610057578063d9e69a0514610245578063e1ec3c6814610259578063e99254a8146102d8578063f2fde38b146102f7575f80fd5b8063b73e4da0146101e1578063bad4a01f14610200578063d37415fe14610213578063d7bd993f14610226575f80fd5b80636112fe2e116100c25780636112fe2e1461016457806387c51459146101835780638da5cb5b146101a6578063aadc1ac1146101c2575f80fd5b806306d37817146100e85780633d331586146101245780635d29cb9814610145575b5f80fd5b3480156100f3575f80fd5b50600454610107906001600160a01b031681565b6040516001600160a01b0390911681526020015b60405180910390f35b34801561012f575f80fd5b5061014361013e3660046111d4565b610316565b005b348015610150575f80fd5b5061014361015f3660046111d4565b610444565b34801561016f575f80fd5b5061014361017e3660046111d4565b61051e565b34801561018e575f80fd5b5061019860035481565b60405190815260200161011b565b3480156101b1575f80fd5b505f546001600160a01b0316610107565b3480156101cd575f80fd5b506101436101dc3660046111d4565b610683565b3480156101ec575f80fd5b506101436101fb3660046111d4565b61075d565b61014361020e3660046111d4565b61087b565b6101436102213660046111d4565b610a30565b348015610231575f80fd5b506101986102403660046111eb565b610c52565b348015610250575f80fd5b5061019860c881565b348015610264575f80fd5b506102c46102733660046111d4565b600260208190525f9182526040909120805460018201549282015460038301546004840154600585015460068601546007909601546001600160a01b03909516969593949293919290919060ff1688565b60405161011b98979695949392919061121f565b3480156102e3575f80fd5b506101986102f23660046111d4565b610d5d565b348015610302575f80fd5b50610143610311366004611289565b610dbc565b5f81815260026020526040902080546001600160a01b031633146103905760405162461bcd60e51b815260206004820152602660248201527f4f6e6c792074686520626f72726f7765722063616e2063616e63656c2074686960448201526539903637b0b760d11b60648201526084015b60405180910390fd5b5f600782015460ff1660058111156103aa576103aa61120b565b146104075760405162461bcd60e51b815260206004820152602760248201527f596f752063616e27742063616e63656c20616e20616c726561647920616374696044820152663b32903637b0b760c91b6064820152608401610387565b60078101805460ff1916600517905560405182907f359a210f03bfbd6073bb1235c29fa7b55d9dc0a26bd806b112ed8f4d3723e6fb905f90a25050565b5f546001600160a01b0316331461046d5760405162461bcd60e51b8152600401610387906112af565b5f81815260026020526040812090600782015460ff1660058111156104945761049461120b565b146104e15760405162461bcd60e51b815260206004820152601d60248201527f4c6f616e206973206e6f7420696e206170706c696564207374617475730000006044820152606401610387565b60078101805460ff1916600417905560405182907f86466d37eece1364ab0023202e5a1d9d14dd6bb5c9904bf0bf361b062329b78e905f90a25050565b6002600154036105705760405162461bcd60e51b815260206004820152601f60248201527f5265656e7472616e637947756172643a207265656e7472616e742063616c6c006044820152606401610387565b600260018190555f8281526020919091526040902080546001600160a01b031633146105ec5760405162461bcd60e51b815260206004820152602560248201527f4f6e6c7920626f72726f7765722063616e20776974686472617720636f6c6c616044820152641d195c985b60da1b6064820152608401610387565b6003600782015460ff1660058111156106075761060761120b565b146106725760405162461bcd60e51b815260206004820152603560248201527f4c6f616e206d75737420626520636f6d706c6574656420746f20706572666f726044820152746d20436f6c6c61746572616c20776974686472617760581b6064820152608401610387565b61067b82610ea3565b505060018055565b5f546001600160a01b031633146106ac5760405162461bcd60e51b8152600401610387906112af565b5f81815260026020526040812090600782015460ff1660058111156106d3576106d361120b565b146107205760405162461bcd60e51b815260206004820152601d60248201527f4c6f616e206973206e6f7420696e206170706c696564207374617475730000006044820152606401610387565b60078101805460ff1916600117905560405182907f073e754af3e7d644af8000094f3c23bc20ef9c40cc057bffa060b0230adf00f4905f90a25050565b5f546001600160a01b031633146107865760405162461bcd60e51b8152600401610387906112af565b5f81815260026020819052604090912090600782015460ff1660058111156107b0576107b061120b565b146107f35760405162461bcd60e51b81526020600482015260136024820152724c6f616e206d7573742062652061637469766560681b6044820152606401610387565b805460018201546040516001600160a01b039092169181156108fc0291905f818181858888f1935050505015801561082d573d5f803e3d5ffd5b5060078101805460ff19166002179055600181015460405190815282907fb2e7e42df3fc0061410ecdbb2644b7b36cd803c2c7d9f20515593b59d98b988c9060200160405180910390a25050565b5f8181526002602052604090206001600782015460ff1660058111156108a3576108a361120b565b146108e85760405162461bcd60e51b8152602060048201526015602482015274131bd85b881b5d5cdd08189948185c1c1c9bdd9959605a1b6044820152606401610387565b80546001600160a01b0316331461094d5760405162461bcd60e51b8152602060048201526024808201527f4f6e6c7920626f72726f7765722063616e206465706f73697420636f6c6c6174604482015263195c985b60e21b6064820152608401610387565b5f606460c8836001015461096191906112f8565b61096b919061130f565b9050803410156109bd5760405162461bcd60e51b815260206004820152601760248201527f496e73756666696369656e7420636f6c6c61746572616c0000000000000000006044820152606401610387565b34826004015f8282546109d0919061132e565b909155505060078201805460ff191660021790556109f14262278d0061132e565b600683015560405134815283907f1d6754727766d56b1fac49ac85a13585c6caab122a19c994e569d16077d462f29060200160405180910390a2505050565b600260015403610a825760405162461bcd60e51b815260206004820152601f60248201527f5265656e7472616e637947756172643a207265656e7472616e742063616c6c006044820152606401610387565b600260018190555f82815260208290526040902090600782015460ff166005811115610ab057610ab061120b565b14610af25760405162461bcd60e51b81526020600482015260126024820152714c6f616e206973206e6f742061637469766560701b6044820152606401610387565b80546001600160a01b03163314610b555760405162461bcd60e51b815260206004820152602160248201527f4f6e6c7920626f72726f7765722063616e206d616b652072657061796d656e746044820152607360f81b6064820152608401610387565b5f610b5f83610d5d565b905080341115610bbc5760405162461bcd60e51b815260206004820152602260248201527f52657061796d656e7420616d6f756e74206578636565647320746f74616c2064604482015261756560f01b6064820152608401610387565b34826005015f828254610bcf919061132e565b909155505060058201548111610bfc5760078201805460ff19166003179055610bf783610ea3565b610c0f565b610c094262278d0061132e565b60068301555b827fd3337f372235c0c137836a45251cd21fba324e7ef27c7acc5ac12451491793b934604051610c4191815260200190565b60405180910390a250506001805550565b5f808311610cad5760405162461bcd60e51b815260206004820152602260248201527f4c6f616e20616d6f756e74206d7573742062652067726561746572207468616e604482015261020360f41b6064820152608401610387565b5f8211610d085760405162461bcd60e51b8152602060048201526024808201527f4c6f616e206475726174696f6e206d75737420626520677265617465722074686044820152630616e20360e41b6064820152608401610387565b5f610d1433858561102d565b6040805186815260208101869052919250339183917f79cb4b766e68bbfaa69f488170899930f6ba3e28ef9ceff7f4387ba0770f9f0e910160405180910390a390505b92915050565b5f81815260026020819052604082209081015460038201546001830154849263bbf81e00929091610d8e91906112f8565b610d9891906112f8565b610da2919061130f565b9050808260010154610db4919061132e565b949350505050565b5f546001600160a01b03163314610de55760405162461bcd60e51b8152600401610387906112af565b6001600160a01b038116610e4a5760405162461bcd60e51b815260206004820152602660248201527f4f776e61626c653a206e6577206f776e657220697320746865207a65726f206160448201526564647265737360d01b6064820152608401610387565b5f80546040516001600160a01b03808516939216917f8be0079c531659141344cd1fd0a4f28419497f9722a3daafe3b4186f6b6457e091a35f80546001600160a01b0319166001600160a01b0392909216919091179055565b5f818152600260205260409020600481015480610f025760405162461bcd60e51b815260206004820152601960248201527f4e6f20636f6c6c61746572616c20746f207769746864726177000000000000006044820152606401610387565b80471015610f525760405162461bcd60e51b815260206004820152601d60248201527f496e73756666696369656e7420636f6e74726163742062616c616e63650000006044820152606401610387565b815460405182915f916001600160a01b039091169083908381818185875af1925050503d805f8114610f9f576040519150601f19603f3d011682016040523d82523d5f602084013e610fa4565b606091505b5050905080610fec5760405162461bcd60e51b81526020600482015260146024820152732330b4b632b2103a379039b2b7321022ba3432b960611b6044820152606401610387565b847f2399e8aed1977410745a5211d8226a3a7d9278f50a8a197c5ec6e285bb437f0b8360405161101e91815260200190565b60405180910390a25050505050565b600380545f918291908261104083611341565b919050559050604051806101000160405280866001600160a01b031681526020018581526020018481526020016110778686611197565b81526020015f81526020015f81526020015f81526020015f60058111156110a0576110a061120b565b81525060025f8381526020019081526020015f205f820151815f015f6101000a8154816001600160a01b0302191690836001600160a01b031602179055506020820151816001015560408201518160020155606082015181600301556080820151816004015560a0820151816005015560c0820151816006015560e0820151816007015f6101000a81548160ff021916908360058111156111435761114361120b565b0217905550905050846001600160a01b0316817f8910ba13a55695f056e224bbbc6b65d866b12a8c2fbdf387fb853a1cca298cd78660405161118791815260200190565b60405180910390a3949350505050565b5f6111a66301e133808361130f565b6111b8670de0b6b3a76400008561130f565b6111c390600561132e565b6111cd919061132e565b9392505050565b5f602082840312156111e4575f80fd5b5035919050565b5f80604083850312156111fc575f80fd5b50508035926020909101359150565b634e487b7160e01b5f52602160045260245ffd5b6001600160a01b03891681526020810188905260408101879052606081018690526080810185905260a0810184905260c0810183905261010081016006831061127657634e487b7160e01b5f52602160045260245ffd5b8260e08301529998505050505050505050565b5f60208284031215611299575f80fd5b81356001600160a01b03811681146111cd575f80fd5b6020808252818101527f4f776e61626c653a2063616c6c6572206973206e6f7420746865206f776e6572604082015260600190565b634e487b7160e01b5f52601160045260245ffd5b8082028115828204841417610d5757610d576112e4565b5f8261132957634e487b7160e01b5f52601260045260245ffd5b500490565b80820180821115610d5757610d576112e4565b5f60018201611352576113526112e4565b506001019056fea2646970667358221220f8dd22d52f07bab3c56d2cd90db5ae4caf0a1eac35aa7c38032a6087c3483ea764736f6c634300081a0033",
  "immutableReferences": {},
  "source": "// SPDX-License-Identifier: MIT\r\npragma solidity ^0.8.26;\r\n\r\nimport \"./LoanBase.sol\";\r\n\r\ncontract BankLoanManagement is LoanBase, ILoanApplication, ILoanApproval, ILoanRepayment, ILoanCollateral,IDisburseLoan {\r\n    uint256 public constant COLLATERAL_RATIO = 200; \r\n    event EtherReceived(address indexed sender, uint256 amount);\r\n\r\n    constructor() LoanBase() {}\r\n\r\n    // ILoanApplication\r\n    function applyForLoan(uint256 amount, uint256 duration) external override returns(uint256) {\r\n        require(amount > 0, \"Loan amount must be greater than 0\");\r\n        require(duration > 0, \"Loan duration must be greater than 0\");\r\n        uint256 loanId= _createLoan(msg.sender, amount, duration);\r\n\t\temit LoanApplicationSubmitted(loanId, msg.sender, amount, duration);\r\n\t\treturn loanId;\r\n\t\t\r\n\t\t\r\n    }\r\n\r\n   function cancelApplication(uint256 loanId) external {\r\n        Loan storage loan = loans[loanId];\r\n        require(msg.sender == loan.borrower, \"Only the borrower can cancel this loan\");\r\n        require(loan.status == LoanStatus.Applied, \"You can't cancel an already active loan\");\r\n        loan.status = LoanStatus.Cancelled;\r\n        emit ApplicationCancelled(loanId);\r\n    }\r\n\r\n    // ILoanApproval\r\n    function approveLoan(uint256 loanId) external override onlyOwner {\r\n        Loan storage loan = loans[loanId];\r\n        require(loan.status == LoanStatus.Applied, \"Loan is not in applied status\");\r\n\r\n        loan.status = LoanStatus.Approved;\r\n        emit LoanApproved(loanId);\r\n    }\r\n\r\n    function rejectLoan(uint256 loanId) external override onlyOwner {\r\n        Loan storage loan = loans[loanId];\r\n        require(loan.status == LoanStatus.Applied, \"Loan is not in applied status\");\r\n\r\n        loan.status = LoanStatus.Defaulted;\r\n        emit LoanRejected(loanId);\r\n    }\r\n\r\n    // ILoanRepayment\r\n    function makeRepayment(uint256 loanId) external payable nonReentrant override {\r\n    Loan storage loan = loans[loanId];\r\n    require(loan.status == LoanStatus.Active, \"Loan is not active\");\r\n    require(msg.sender == loan.borrower, \"Only borrower can make repayments\");\r\n\r\n    uint256 totalDue = _calculateTotalDue(loanId);\r\n    require(msg.value <= totalDue, \"Repayment amount exceeds total due\");\r\n\r\n    loan.repaidAmount += msg.value;\r\n\r\n    if (loan.repaidAmount >= totalDue) {\r\n        loan.status = LoanStatus.Completed;\r\n        _withdrawCollateral(loanId);\r\n      \r\n    } else {\r\n        loan.nextRepaymentDate = block.timestamp + 30 days;\r\n    }\r\n\r\n    emit RepaymentMade(loanId, msg.value);\r\n}\r\n\r\n    // ILoanCollateral\r\n   function depositCollateral(uint256 loanId) external payable {\r\n    Loan storage loan = loans[loanId];\r\n\r\n    require(loan.status == LoanStatus.Approved, \"Loan must be approved\");\r\n    require(msg.sender == loan.borrower, \"Only borrower can deposit collateral\");\r\n\r\n    uint256 requiredCollateral = (loan.amount * COLLATERAL_RATIO) / 100;\r\n    require(msg.value >= requiredCollateral, \"Insufficient collateral\");\r\n\r\n    loan.collateralAmount += msg.value;  // Accumulate collateral\r\n    loan.status = LoanStatus.Active;\r\n    loan.nextRepaymentDate = block.timestamp + 30 days;\r\n\r\n    emit CollateralDeposited(loanId, msg.value);\r\n}\r\n\r\n// New function to disburse the loan amount\r\nfunction disburseLoan(uint256 loanId) external onlyOwner {\r\n    Loan storage loan = loans[loanId];\r\n    require(loan.status == LoanStatus.Active, \"Loan must be active\");\r\n\r\n    // Transfer the loan amount to the borrower\r\n    payable(loan.borrower).transfer(loan.amount);\r\n    loan.status = LoanStatus.Active; // Ensure status reflects the active loan\r\n    emit LoanDisbursed(loanId, loan.amount);\r\n}\r\n\r\n\r\n\r\n  function withdrawCollateral(uint256 loanId) external nonReentrant {\r\n    Loan storage loan = loans[loanId];\r\n    require(msg.sender == loan.borrower, \"Only borrower can withdraw collateral\");\r\n    require(loan.status == LoanStatus.Completed, \"Loan must be completed to perform Collateral withdraw\");\r\n    \r\n    _withdrawCollateral(loanId);\r\n}\r\n\r\n    // Internal functions\r\n    function _calculateInterestRate(uint256 amount, uint256 duration) internal pure override returns (uint256) {\r\n       \r\n        return 5 + (amount / 1e18) + (duration / 365 days);\r\n    }\r\n\r\n    function _calculateTotalDue(uint256 loanId) public view returns (uint256) {\r\n        Loan storage loan = loans[loanId];\r\n        uint256 interest = (loan.amount * loan.interestRate * loan.duration) / (365 days * 100);\r\n        return loan.amount + interest;\r\n    }\r\n\r\n   function _withdrawCollateral(uint256 loanId) internal {\r\n    Loan storage loan = loans[loanId];\r\n    uint256 collateralAmount = loan.collateralAmount;\r\n    \r\n    require(collateralAmount > 0, \"No collateral to withdraw\");\r\n    require(address(this).balance >= collateralAmount, \"Insufficient contract balance\");\r\n     uint256 amountToSend = collateralAmount;\r\n    \r\n\r\n    // Attempt to send the stored amount\r\n    (bool sent, ) = payable(loan.borrower).call{value: amountToSend}(\"\");\r\n    require(sent, \"Failed to send Ether\");\r\n\r\n    emit CollateralWithdrawn(loanId, amountToSend);\r\n   }\r\n\r\n   \r\n}",
  "sourcePath": "C:\\Users\\Yessine\\SkalBAnk\\contracts\\BankLoanManagement.sol",
  "compiler": {
    "name": "solc",
    "version": "0.8.26+commit.8a97fa7a.Emscripten.clang"
  },
  "schemaVersion": "3.4.16",
  "updatedAt": "2024-09-23T21:55:07.887Z",
  "networkType": "ethereum",
  "devdoc": {
    "kind": "dev",
    "methods": {},
    "version": 1
  },
  "userdoc": {
    "kind": "user",
    "methods": {},
    "version": 1
  }
}