{
  "contractName": "BankLoanManagement",
  "abi": [
    {
      "inputs": [],
      "stateMutability": "nonpayable",
      "type": "constructor"
    },
    {
      "anonymous": false,
      "inputs": [
        {
          "indexed": true,
          "internalType": "uint256",
          "name": "loanId",
          "type": "uint256"
        }
      ],
      "name": "ApplicationCancelled",
      "type": "event"
    },
    {
      "anonymous": false,
      "inputs": [
        {
          "indexed": true,
          "internalType": "uint256",
          "name": "loanId",
          "type": "uint256"
        },
        {
          "indexed": false,
          "internalType": "uint256",
          "name": "amount",
          "type": "uint256"
        }
      ],
      "name": "CollateralDeposited",
      "type": "event"
    },
    {
      "anonymous": false,
      "inputs": [
        {
          "indexed": true,
          "internalType": "uint256",
          "name": "loanId",
          "type": "uint256"
        },
        {
          "indexed": false,
          "internalType": "uint256",
          "name": "amount",
          "type": "uint256"
        }
      ],
      "name": "CollateralWithdrawn",
      "type": "event"
    },
    {
      "anonymous": false,
      "inputs": [
        {
          "indexed": true,
          "internalType": "address",
          "name": "sender",
          "type": "address"
        },
        {
          "indexed": false,
          "internalType": "uint256",
          "name": "amount",
          "type": "uint256"
        }
      ],
      "name": "EtherReceived",
      "type": "event"
    },
    {
      "anonymous": false,
      "inputs": [
        {
          "indexed": true,
          "internalType": "uint256",
          "name": "loanId",
          "type": "uint256"
        }
      ],
      "name": "LoanApproved",
      "type": "event"
    },
    {
      "anonymous": false,
      "inputs": [
        {
          "indexed": true,
          "internalType": "uint256",
          "name": "loanId",
          "type": "uint256"
        },
        {
          "indexed": true,
          "internalType": "address",
          "name": "borrower",
          "type": "address"
        },
        {
          "indexed": false,
          "internalType": "uint256",
          "name": "amount",
          "type": "uint256"
        }
      ],
      "name": "LoanCreated",
      "type": "event"
    },
    {
      "anonymous": false,
      "inputs": [
        {
          "indexed": true,
          "internalType": "uint256",
          "name": "loanId",
          "type": "uint256"
        }
      ],
      "name": "LoanRejected",
      "type": "event"
    },
    {
      "anonymous": false,
      "inputs": [
        {
          "indexed": true,
          "internalType": "address",
          "name": "previousOwner",
          "type": "address"
        },
        {
          "indexed": true,
          "internalType": "address",
          "name": "newOwner",
          "type": "address"
        }
      ],
      "name": "OwnershipTransferred",
      "type": "event"
    },
    {
      "anonymous": false,
      "inputs": [
        {
          "indexed": true,
          "internalType": "uint256",
          "name": "loanId",
          "type": "uint256"
        },
        {
          "indexed": false,
          "internalType": "uint256",
          "name": "amount",
          "type": "uint256"
        }
      ],
      "name": "RepaymentMade",
      "type": "event"
    },
    {
      "inputs": [],
      "name": "COLLATERAL_RATIO",
      "outputs": [
        {
          "internalType": "uint256",
          "name": "",
          "type": "uint256"
        }
      ],
      "stateMutability": "view",
      "type": "function",
      "constant": true
    },
    {
      "inputs": [],
      "name": "loanToken",
      "outputs": [
        {
          "internalType": "contract IERC20",
          "name": "",
          "type": "address"
        }
      ],
      "stateMutability": "view",
      "type": "function",
      "constant": true
    },
    {
      "inputs": [
        {
          "internalType": "uint256",
          "name": "",
          "type": "uint256"
        }
      ],
      "name": "loans",
      "outputs": [
        {
          "internalType": "address",
          "name": "borrower",
          "type": "address"
        },
        {
          "internalType": "uint256",
          "name": "amount",
          "type": "uint256"
        },
        {
          "internalType": "uint256",
          "name": "duration",
          "type": "uint256"
        },
        {
          "internalType": "uint256",
          "name": "interestRate",
          "type": "uint256"
        },
        {
          "internalType": "uint256",
          "name": "collateralAmount",
          "type": "uint256"
        },
        {
          "internalType": "uint256",
          "name": "repaidAmount",
          "type": "uint256"
        },
        {
          "internalType": "uint256",
          "name": "nextRepaymentDate",
          "type": "uint256"
        },
        {
          "internalType": "enum LoanBase.LoanStatus",
          "name": "status",
          "type": "uint8"
        }
      ],
      "stateMutability": "view",
      "type": "function",
      "constant": true
    },
    {
      "inputs": [],
      "name": "nextLoanId",
      "outputs": [
        {
          "internalType": "uint256",
          "name": "",
          "type": "uint256"
        }
      ],
      "stateMutability": "view",
      "type": "function",
      "constant": true
    },
    {
      "inputs": [],
      "name": "owner",
      "outputs": [
        {
          "internalType": "address",
          "name": "",
          "type": "address"
        }
      ],
      "stateMutability": "view",
      "type": "function",
      "constant": true
    },
    {
      "inputs": [
        {
          "internalType": "address",
          "name": "newOwner",
          "type": "address"
        }
      ],
      "name": "transferOwnership",
      "outputs": [],
      "stateMutability": "nonpayable",
      "type": "function"
    },
    {
      "stateMutability": "payable",
      "type": "receive",
      "payable": true
    },
    {
      "inputs": [
        {
          "internalType": "uint256",
          "name": "amount",
          "type": "uint256"
        },
        {
          "internalType": "uint256",
          "name": "duration",
          "type": "uint256"
        }
      ],
      "name": "applyForLoan",
      "outputs": [],
      "stateMutability": "nonpayable",
      "type": "function"
    },
    {
      "inputs": [
        {
          "internalType": "uint256",
          "name": "loanId",
          "type": "uint256"
        }
      ],
      "name": "cancelApplication",
      "outputs": [],
      "stateMutability": "nonpayable",
      "type": "function"
    },
    {
      "inputs": [
        {
          "internalType": "uint256",
          "name": "loanId",
          "type": "uint256"
        }
      ],
      "name": "approveLoan",
      "outputs": [],
      "stateMutability": "nonpayable",
      "type": "function"
    },
    {
      "inputs": [
        {
          "internalType": "uint256",
          "name": "loanId",
          "type": "uint256"
        }
      ],
      "name": "rejectLoan",
      "outputs": [],
      "stateMutability": "nonpayable",
      "type": "function"
    },
    {
      "inputs": [
        {
          "internalType": "uint256",
          "name": "loanId",
          "type": "uint256"
        },
        {
          "internalType": "uint256",
          "name": "amount",
          "type": "uint256"
        }
      ],
      "name": "makeRepayment",
      "outputs": [],
      "stateMutability": "nonpayable",
      "type": "function"
    },
    {
      "inputs": [
        {
          "internalType": "uint256",
          "name": "loanId",
          "type": "uint256"
        }
      ],
      "name": "depositCollateral",
      "outputs": [],
      "stateMutability": "payable",
      "type": "function",
      "payable": true
    },
    {
      "inputs": [
        {
          "internalType": "uint256",
          "name": "loanId",
          "type": "uint256"
        }
      ],
      "name": "withdrawCollateral",
      "outputs": [],
      "stateMutability": "nonpayable",
      "type": "function"
    }
  ],
  "bytecode": "0x6080604052348015600e575f80fd5b505f80546001600160a01b0319163390811782556040519091907f8be0079c531659141344cd1fd0a4f28419497f9722a3daafe3b4186f6b6457e0908290a3600180556112c78061005e5f395ff3fe6080604052600436106100c2575f3560e01c8063aadc1ac11161007c578063d7bd993f11610057578063d7bd993f1461022d578063d9e69a051461024c578063e1ec3c6814610260578063f2fde38b146102df575f80fd5b8063aadc1ac1146101dc578063b1485b33146101fb578063bad4a01f1461021a575f80fd5b806306d37817146101025780633d3315861461013e5780635d29cb981461015f5780636112fe2e1461017e57806387c514591461019d5780638da5cb5b146101c0575f80fd5b366100fe5760405134815233907f1e57e3bb474320be3d2c77138f75b7c3941292d647f5f9634e33a8e94e0e069b9060200160405180910390a2005b5f80fd5b34801561010d575f80fd5b50600454610121906001600160a01b031681565b6040516001600160a01b0390911681526020015b60405180910390f35b348015610149575f80fd5b5061015d6101583660046110e6565b6102fe565b005b34801561016a575f80fd5b5061015d6101793660046110e6565b61042b565b348015610189575f80fd5b5061015d6101983660046110e6565b610505565b3480156101a8575f80fd5b506101b260035481565b604051908152602001610135565b3480156101cb575f80fd5b505f546001600160a01b0316610121565b3480156101e7575f80fd5b5061015d6101f63660046110e6565b610616565b348015610206575f80fd5b5061015d6102153660046110fd565b6106f0565b61015d6102283660046110e6565b6109d0565b348015610238575f80fd5b5061015d6102473660046110fd565b610c36565b348015610257575f80fd5b506101b260c881565b34801561026b575f80fd5b506102cb61027a3660046110e6565b600260208190525f9182526040909120805460018201549282015460038301546004840154600585015460068601546007909601546001600160a01b03909516969593949293919290919060ff1688565b604051610135989796959493929190611131565b3480156102ea575f80fd5b5061015d6102f936600461119b565b610cfb565b5f81815260026020526040902080546001600160a01b031633146103785760405162461bcd60e51b815260206004820152602660248201527f4f6e6c792074686520626f72726f7765722063616e2063616e63656c2074686960448201526539903637b0b760d11b60648201526084015b60405180910390fd5b5f600782015460ff1660058111156103925761039261111d565b146103ee5760405162461bcd60e51b815260206004820152602660248201527f596f752063616e742063616e63656c20416e20616c726561647920616374697660448201526532902637b0b760d11b606482015260840161036f565b60078101805460ff1916600417905560405182907f359a210f03bfbd6073bb1235c29fa7b55d9dc0a26bd806b112ed8f4d3723e6fb905f90a25050565b5f546001600160a01b031633146104545760405162461bcd60e51b815260040161036f906111c8565b5f81815260026020526040812090600782015460ff16600581111561047b5761047b61111d565b146104c85760405162461bcd60e51b815260206004820152601d60248201527f4c6f616e206973206e6f7420696e206170706c69656420737461747573000000604482015260640161036f565b60078101805460ff1916600417905560405182907f86466d37eece1364ab0023202e5a1d9d14dd6bb5c9904bf0bf361b062329b78e905f90a25050565b5f818152600260205260409020546001600160a01b031633146105785760405162461bcd60e51b815260206004820152602560248201527f4f6e6c7920626f72726f7765722063616e20776974686472617720636f6c6c616044820152641d195c985b60da1b606482015260840161036f565b60035f8281526002602052604090206007015460ff16600581111561059f5761059f61111d565b1461060a5760405162461bcd60e51b815260206004820152603560248201527f4c6f616e206d75737420626520636f6d706c6574656420746f20706572666f726044820152746d20436f6c6c61746572616c20776974686472617760581b606482015260840161036f565b61061381610de2565b50565b5f546001600160a01b0316331461063f5760405162461bcd60e51b815260040161036f906111c8565b5f81815260026020526040812090600782015460ff1660058111156106665761066661111d565b146106b35760405162461bcd60e51b815260206004820152601d60248201527f4c6f616e206973206e6f7420696e206170706c69656420737461747573000000604482015260640161036f565b60078101805460ff1916600117905560405182907f073e754af3e7d644af8000094f3c23bc20ef9c40cc057bffa060b0230adf00f4905f90a25050565b6002600154036107425760405162461bcd60e51b815260206004820152601f60248201527f5265656e7472616e637947756172643a207265656e7472616e742063616c6c00604482015260640161036f565b600260018190555f83815260208290526040902090600782015460ff1660058111156107705761077061111d565b146107b25760405162461bcd60e51b81526020600482015260126024820152714c6f616e206973206e6f742061637469766560701b604482015260640161036f565b80546001600160a01b031633146108155760405162461bcd60e51b815260206004820152602160248201527f4f6e6c7920626f72726f7765722063616e206d616b652072657061796d656e746044820152607360f81b606482015260840161036f565b5f61081f84610ede565b90508083111561087c5760405162461bcd60e51b815260206004820152602260248201527f52657061796d656e7420616d6f756e74206578636565647320746f74616c2064604482015261756560f01b606482015260840161036f565b82826005015f82825461088f9190611211565b9091555050600480546040516323b872dd60e01b81523392810192909252306024830152604482018590526001600160a01b0316906323b872dd906064016020604051808303815f875af11580156108e9573d5f803e3d5ffd5b505050506040513d601f19601f8201168201806040525081019061090d9190611224565b6109515760405162461bcd60e51b8152602060048201526015602482015274151bdad95b881d1c985b9cd9995c8819985a5b1959605a1b604482015260640161036f565b808260050154106109795760078201805460ff1916600317905561097484610de2565b61098c565b6109864262278d00611211565b60068301555b837fd3337f372235c0c137836a45251cd21fba324e7ef27c7acc5ac12451491793b9846040516109be91815260200190565b60405180910390a25050600180555050565b5f8181526002602052604090206001600782015460ff1660058111156109f8576109f861111d565b14610a3d5760405162461bcd60e51b8152602060048201526015602482015274131bd85b881b5d5cdd08189948185c1c1c9bdd9959605a1b604482015260640161036f565b80546001600160a01b03163314610aa25760405162461bcd60e51b8152602060048201526024808201527f4f6e6c7920626f72726f7765722063616e206465706f73697420636f6c6c6174604482015263195c985b60e21b606482015260840161036f565b5f606460c88360010154610ab69190611243565b610ac0919061125a565b905080341015610b125760405162461bcd60e51b815260206004820152601760248201527f496e73756666696369656e7420636f6c6c61746572616c000000000000000000604482015260640161036f565b34600483015560078201805460ff19166002179055610b344262278d00611211565b6006830155600480548354600185015460405163a9059cbb60e01b81526001600160a01b03928316948101949094526024840152169063a9059cbb906044016020604051808303815f875af1158015610b8f573d5f803e3d5ffd5b505050506040513d601f19601f82011682018060405250810190610bb39190611224565b610bf75760405162461bcd60e51b8152602060048201526015602482015274151bdad95b881d1c985b9cd9995c8819985a5b1959605a1b604482015260640161036f565b827f1d6754727766d56b1fac49ac85a13585c6caab122a19c994e569d16077d462f234604051610c2991815260200190565b60405180910390a2505050565b5f8211610c905760405162461bcd60e51b815260206004820152602260248201527f4c6f616e20616d6f756e74206d7573742062652067726561746572207468616e604482015261020360f41b606482015260840161036f565b5f8111610ceb5760405162461bcd60e51b8152602060048201526024808201527f4c6f616e206475726174696f6e206d75737420626520677265617465722074686044820152630616e20360e41b606482015260840161036f565b610cf6338383610f3d565b505050565b5f546001600160a01b03163314610d245760405162461bcd60e51b815260040161036f906111c8565b6001600160a01b038116610d895760405162461bcd60e51b815260206004820152602660248201527f4f776e61626c653a206e6577206f776e657220697320746865207a65726f206160448201526564647265737360d01b606482015260840161036f565b5f80546040516001600160a01b03808516939216917f8be0079c531659141344cd1fd0a4f28419497f9722a3daafe3b4186f6b6457e091a35f80546001600160a01b0319166001600160a01b0392909216919091179055565b5f8181526002602052604080822060048101805490849055815492519193909290916001600160a01b039091169083908381818185875af1925050503d805f8114610e48576040519150601f19603f3d011682016040523d82523d5f602084013e610e4d565b606091505b5050905080610e9e5760405162461bcd60e51b815260206004820152601960248201527f4661696c656420746f2073656e6420636f6c6c61746572616c00000000000000604482015260640161036f565b837f2399e8aed1977410745a5211d8226a3a7d9278f50a8a197c5ec6e285bb437f0b83604051610ed091815260200190565b60405180910390a250505050565b5f81815260026020819052604082209081015460038201546001830154849263bbf81e00929091610f0f9190611243565b610f199190611243565b610f23919061125a565b9050808260010154610f359190611211565b949350505050565b600380545f9182919082610f5083611279565b919050559050604051806101000160405280866001600160a01b03168152602001858152602001848152602001610f8786866110a7565b81526020015f81526020015f81526020015f81526020015f6005811115610fb057610fb061111d565b81525060025f8381526020019081526020015f205f820151815f015f6101000a8154816001600160a01b0302191690836001600160a01b031602179055506020820151816001015560408201518160020155606082015181600301556080820151816004015560a0820151816005015560c0820151816006015560e0820151816007015f6101000a81548160ff021916908360058111156110535761105361111d565b0217905550905050846001600160a01b0316817f8910ba13a55695f056e224bbbc6b65d866b12a8c2fbdf387fb853a1cca298cd78660405161109791815260200190565b60405180910390a3949350505050565b5f6110b66301e133808361125a565b6110c8670de0b6b3a76400008561125a565b6110d3906005611211565b6110dd9190611211565b90505b92915050565b5f602082840312156110f6575f80fd5b5035919050565b5f806040838503121561110e575f80fd5b50508035926020909101359150565b634e487b7160e01b5f52602160045260245ffd5b6001600160a01b03891681526020810188905260408101879052606081018690526080810185905260a0810184905260c0810183905261010081016006831061118857634e487b7160e01b5f52602160045260245ffd5b8260e08301529998505050505050505050565b5f602082840312156111ab575f80fd5b81356001600160a01b03811681146111c1575f80fd5b9392505050565b6020808252818101527f4f776e61626c653a2063616c6c6572206973206e6f7420746865206f776e6572604082015260600190565b634e487b7160e01b5f52601160045260245ffd5b808201808211156110e0576110e06111fd565b5f60208284031215611234575f80fd5b815180151581146111c1575f80fd5b80820281158282048414176110e0576110e06111fd565b5f8261127457634e487b7160e01b5f52601260045260245ffd5b500490565b5f6001820161128a5761128a6111fd565b506001019056fea26469706673582212208d40abe84e3b60b519a56d502e19cce22d0bdcc55cc361512a6090638952ecb164736f6c634300081a0033",
  "immutableReferences": {},
  "source": "// SPDX-License-Identifier: MIT\r\npragma solidity ^0.8.26;\r\n\r\nimport \"./LoanBase.sol\";\r\n\r\ncontract BankLoanManagement is LoanBase, ILoanApplication, ILoanApproval, ILoanRepayment, ILoanCollateral {\r\n    uint256 public constant COLLATERAL_RATIO = 200; \r\n    event EtherReceived(address indexed sender, uint256 amount);\r\n\r\n    constructor() LoanBase() {}\r\n\r\n    // ILoanApplication\r\n    function applyForLoan(uint256 amount, uint256 duration) external override {\r\n        require(amount > 0, \"Loan amount must be greater than 0\");\r\n        require(duration > 0, \"Loan duration must be greater than 0\");\r\n        _createLoan(msg.sender, amount, duration);\r\n    }\r\n\r\n    function cancelApplication(uint256 loanId)   external override {\r\n         Loan storage loan = loans[loanId];\r\n        require(msg.sender == loan.borrower, \"Only the borrower can cancel this loan\");\r\n\r\n        require(loan.status == LoanStatus.Applied,\"You cant cancel An already active Loan\");\r\n       loan.status = LoanStatus.Defaulted;\r\n        emit  ApplicationCancelled(loanId);\r\n    }\r\n\r\n    // ILoanApproval\r\n    function approveLoan(uint256 loanId) external override onlyOwner {\r\n        Loan storage loan = loans[loanId];\r\n        require(loan.status == LoanStatus.Applied, \"Loan is not in applied status\");\r\n\r\n        loan.status = LoanStatus.Approved;\r\n        emit LoanApproved(loanId);\r\n    }\r\n\r\n    function rejectLoan(uint256 loanId) external override onlyOwner {\r\n        Loan storage loan = loans[loanId];\r\n        require(loan.status == LoanStatus.Applied, \"Loan is not in applied status\");\r\n\r\n        loan.status = LoanStatus.Defaulted;\r\n        emit LoanRejected(loanId);\r\n    }\r\n\r\n    // ILoanRepayment\r\n    function makeRepayment(uint256 loanId, uint256 amount) external override nonReentrant {\r\n        Loan storage loan = loans[loanId];\r\n        require(loan.status == LoanStatus.Active, \"Loan is not active\");\r\n        require(msg.sender == loan.borrower, \"Only borrower can make repayments\");\r\n\r\n        uint256 totalDue = _calculateTotalDue(loanId);\r\n        require(amount <= totalDue, \"Repayment amount exceeds total due\");\r\n\r\n        loan.repaidAmount += amount;\r\n        require(loanToken.transferFrom(msg.sender, address(this), amount), \"Token transfer failed\");\r\n\r\n        if (loan.repaidAmount >= totalDue) {\r\n            loan.status = LoanStatus.Completed;\r\n            _withdrawCollateral(loanId);\r\n        } else {\r\n            loan.nextRepaymentDate = block.timestamp + 30 days;\r\n        }\r\n\r\n        emit RepaymentMade(loanId, amount);\r\n    }\r\n\r\n    // ILoanCollateral\r\n    function depositCollateral(uint256 loanId) external payable override {\r\n        Loan storage loan = loans[loanId];\r\n        require(loan.status == LoanStatus.Approved, \"Loan must be approved\");\r\n        require(msg.sender == loan.borrower, \"Only borrower can deposit collateral\");\r\n\r\n        uint256 requiredCollateral = (loan.amount * COLLATERAL_RATIO) / 100;\r\n        require(msg.value >= requiredCollateral, \"Insufficient collateral\");\r\n\r\n        loan.collateralAmount = msg.value;\r\n        loan.status = LoanStatus.Active;\r\n        loan.nextRepaymentDate = block.timestamp + 30 days;\r\n\r\n        // Transfer loan amount to borrower\r\n        require(loanToken.transfer(loan.borrower, loan.amount), \"Token transfer failed\");\r\n\r\n        emit CollateralDeposited(loanId, msg.value);\r\n    }\r\n\r\n    function withdrawCollateral(uint256 loanId) external override {\r\n        require(msg.sender == loans[loanId].borrower, \"Only borrower can withdraw collateral\");\r\n        require(loans[loanId].status == LoanStatus.Completed, \"Loan must be completed to perform Collateral withdraw\");\r\n\r\n        _withdrawCollateral(loanId);\r\n    }\r\n     receive() external payable {\r\n        emit EtherReceived(msg.sender, msg.value);\r\n     }\r\n\r\n    // Internal functions\r\n    function _calculateInterestRate(uint256 amount, uint256 duration) internal pure override returns (uint256) {\r\n       \r\n        return 5 + (amount / 1e18) + (duration / 365 days);\r\n    }\r\n\r\n    function _calculateTotalDue(uint256 loanId) internal view returns (uint256) {\r\n        Loan storage loan = loans[loanId];\r\n        uint256 interest = (loan.amount * loan.interestRate * loan.duration) / (365 days * 100);\r\n        return loan.amount + interest;\r\n    }\r\n\r\n    function _withdrawCollateral(uint256 loanId) internal {\r\n        Loan storage loan = loans[loanId];\r\n        uint256 collateralAmount = loan.collateralAmount;\r\n        loan.collateralAmount = 0;\r\n\r\n        (bool sent, ) = payable(loan.borrower).call{value: collateralAmount}(\"\");\r\n        require(sent, \"Failed to send collateral\");\r\n\r\n        emit CollateralWithdrawn(loanId, collateralAmount);\r\n    }\r\n\r\n   \r\n}",
  "sourcePath": "C:\\Users\\Yessine\\SkalBank\\contracts\\BankLoanManagement.sol",
  "compiler": {
    "name": "solc",
    "version": "0.8.26+commit.8a97fa7a.Emscripten.clang"
  },
  "schemaVersion": "3.4.16",
  "updatedAt": "2024-09-22T22:31:29.473Z",
  "networkType": "ethereum",
  "devdoc": {
    "kind": "dev",
    "methods": {},
    "version": 1
  },
  "userdoc": {
    "kind": "user",
    "methods": {},
    "version": 1
  }
}